:100000000C9462000C947F000C947F000C947F0091
:100010000C947F000C947F000C947F000C947F0064
:100020000C947F000C94AC080C947F000C947F001F
:100030000C947F000C940E080C947F000C947F00AD
:100040000C947F000C947F000C947F000C947F0034
:100050000C947F000C947F000C947F000C947F0024
:100060000C947F000C947F000C947F000C947F0014
:100070000C947F000C947F000C947F000C947F0004
:100080000C947F000C947F000C947F000C947F00F4
:100090000C947F000C947F000C947F000C947F00E4
:1000A0000C947F000C947F000C947F000C947F00D4
:1000B0000C947F00AC0FB60FD00FDE0FF20F0010C4
:1000C0001810261011241FBECFEFD8E0DEBFCDBF21
:1000D00013E0A0E0B1E0E0EEF8E202C005900D927E
:1000E000AE34B107D9F723E0AEE4B3E001C01D920E
:1000F000A536B207E1F70E94D1050C946E140C945A
:1001000000000F931F93CF93DF93EA01FA01019050
:100110000020E9F73197E41BF50B462F50E04E0F16
:10012000511D423151051CF0C0E6D1E061E090E084
:100130000DC0813021F4A00FB11F2C9306C0823076
:1001400021F4A00FB11F51962C939F5FA92FB0E00F
:10015000E62FF0E03197AE17BF075CF312C038818D
:10016000332301F1813029F4F801E90FF11D3083C7
:1001700006C0823021F4F801E90FF11D318B219680
:100180009F5F903160F30EC0813029F4F801E90FD0
:10019000F11D208306C0823021F4F801E90FF11D22
:1001A000218B9F5F903180F3DF91CF911F910F9151
:1001B0000895CF93DF93EC01AC0160E081E00E94F1
:1001C0007609AE014F5E5F4F60E082E00E947609E3
:1001D000DF91CF910895CF93DF93DC01EA0190E0A6
:1001E00009C02881222319F02D93219602C080E2B4
:1001F0008D939F5FE92FF0E0262F30E021503109E9
:10020000E217F30774F31C92DF91CF9108950E94D7
:10021000171408950E94291408959C01CA01462FBD
:1002200050E0B9010E94071408959C01CA01462FAD
:1002300050E0B9010E941F140895FF920F931F937D
:10024000CF93DF93CDB7DEB760970FB6F894DEBFDC
:100250000FBECDBF98E5998329E42A8335E43B831B
:100260004EE44C8351E35D8366E36E831F8288878F
:1002700089871A866B875C874D873E872F87988B87
:1002800010E00EC0812F90E0E1E0F0E0EC0FFD1FE8
:10029000E80FF91F00810E940701081305C01F5FC6
:1002A000183080F300E001C001E010E010C0812FA1
:1002B00090E0E9E0F0E0EC0FFD1FE80FF91FF0809F
:1002C00080579F4F0E940701F81204C01F5F18302B
:1002D00070F301C001E00130C9F50DC0812F90E03D
:1002E000E1E0F0E0EC0FFD1FE80FF91F60810E94D4
:1002F0000A011F5F01C010E0183080F310E007C052
:10030000812F90E060E008960E940A011F5F18307C
:10031000B8F310E007C0812F90E060E040960E94A3
:100320000A011F5F1123BCF710E00EC0812F90E07F
:10033000E9E0F0E0EC0FFD1FE80FF91F6081805746
:100340009F4F0E940A011F5F183080F3802F609634
:100350000FB6F894DEBF0FBECDBFDF91CF911F91D6
:100360000F91FF900895CF92DF92EF92FF920F933B
:100370001F93CF93DF93CDB7DEB761970FB6F89495
:10038000DEBF0FBECDBF7C018C0120E241E751E012
:1003900063E081E00E948100198A1F928AE78F93AF
:1003A0001F9282E78F931F9285E68F931F928DE4B1
:1003B0008F931F9280E28F931F929BE69F931F92D1
:1003C00099E69F931F929EE69F931F9291E69F93BB
:1003D0001F929AE49F931F928F931F928AE38F93A9
:1003E0001F9289E78F931F9282E68F938EE791E0A9
:1003F0009F938F93CE0101966C019F938F930E94E0
:1004000054110FB6F894DEBF0FBECDBF20E2A60197
:1004100062E082E00E948100C7010E94D9006196DB
:100420000FB6F894DEBF0FBECDBFDF91CF911F9105
:100430000F91FF90EF90DF90CF900895CF92DF92D1
:10044000EF92FF920F931F93CF93DF93CDB7DEB759
:1004500061970FB6F894DEBF0FBECDBF6C017B0174
:100460008C0120E24BE951E064E081E00E948100D0
:10047000198AD70114968C911497882341F1EC9135
:10048000F0E0EE0FFF1FEE5FFE4F81818F938081C2
:100490008F9312968C9112978F9311968C918F93C4
:1004A00085EA91E09F938F93FE0131967F01FF9340
:1004B000EF930E94541120E2A70161E082E00E94C4
:1004C00081000FB6F894DEBF0FBECDBF4BC0D70181
:1004D00015964D915C9116979A01ADECBCEC0E947B
:1004E00064109695879596958795969587959C0126
:1004F000220F331F880F991F880F991F880F991F8C
:10050000820F931FFA01E81BF90BCF019F93EF9322
:100510009A010E9464109695879596958795969571
:1005200087959F938F93D70112968C9112978F93F3
:1005300011968C918F9383EB91E09F938F93FE01A3
:1005400031967F01FF93EF930E945411860120E2C0
:10055000A70161E082E00E9481000FB6F894DEBF3F
:100560000FBECDBFC6010E94D90061960FB6F894A8
:10057000DEBF0FBECDBFDF91CF911F910F91FF90D6
:10058000EF90DF90CF900895AF92BF92CF92DF921D
:10059000EF92FF920F931F93CF93DF93CDB7DEB708
:1005A00061970FB6F894DEBF0FBECDBF6C017B0123
:1005B000198ADB0112968C9112978F9311968C9168
:1005C0008F9383EC91E09F938F93FE0131965F01AF
:1005D000FF93EF930E945411860120E2A50162E08F
:1005E00081E00E948100D70114968C9114970F909E
:1005F0000F900F900F900F900F908823F9F0EC91CF
:10060000F0E0EE0FFF1FEE5FFE4F81818F93808140
:100610008F9381ED91E09F938F93BF92AF920E9451
:10062000541120E2A50164E082E00E9481000F9055
:100630000F900F900F900F900F9044C0D701159618
:100640004D915C9116979A01ADECBCEC0E94641040
:100650009695879596958795969587959C01220FF7
:10066000331F880F991F880F991F880F991F820FBA
:10067000931FFA01E81BF90BCF019F93EF939A01A7
:100680000E9464109695879596958795969587957F
:100690009F938F938AED91E09F938F939E012F5F9D
:1006A0003F4F79013F932F930E945411860120E21E
:1006B000A70162E082E00E9481000FB6F894DEBFDD
:1006C0000FBECDBFC6010E94D90061960FB6F89447
:1006D000DEBF0FBECDBFDF91CF911F910F91FF9075
:1006E000EF90DF90CF90BF90AF9008956F927F9280
:1006F0008F929F92AF92BF92CF92DF92EF92FF9232
:100700000F931F93CF93DF93CDB7DEB761970FB6EB
:10071000F894DEBF0FBECDBF6C015B01FB0183818E
:10072000813039F489B18074F82E89B18078E82E4F
:1007300010C0F9B0F694F694F694F694F694F69404
:1007400081E08F258170F82EE9B0E094EE1CEE2454
:10075000EE1CFF2091F0E11010C080915E0381112A
:100760000CC08BB18D7F8BB981E080935E03809349
:100770005C03B501C6010E94C402EE2041F08091E5
:100780005E03813021F480935D0310925C03EE20C0
:1007900099F0F11011C080915E0381110DC08BB1F1
:1007A0008D7F8BB982E080935E0381E080935C0350
:1007B000B501C6010E94C402FF2049F080915E038A
:1007C000823029F481E080935D0310925C03809174
:1007D0005D03813009F0F3C080915A0390915B036F
:1007E000892B09F0ECC0198AF5018781882349F02B
:1007F000860120E24AEE51E061E081E00E94810042
:1008000008C0860120E24BEF51E061E081E00E94E8
:1008100081008091560390915703A0915803B091A5
:100820005903892B8A2B8B2B81F4860120E24CE023
:1008300052E064E082E00E948100F50180859185AC
:100840009093550380935403A9C060916103709104
:100850006203809163039091640320915603309169
:10086000570340915803509159030E943C10822E27
:10087000932EF5018781882309F447C0F0E18F1694
:10088000F7E29F0630F00F2EFFE08F2EF7E29F2E4B
:10089000F02D80915203909153038815990520F40F
:1008A0009092530380925203809100019091010134
:1008B0008816990620F490920101809200019F927F
:1008C0008F92809101018F93809100018F9380918D
:1008D00053038F93809152038F9387E192E09F930C
:1008E0008F93CE0101963C019F938F930E945411E8
:1008F000860120E2A30161E082E00E9481000FB640
:10090000F894DEBF0FBECDBF1AC03F932F9385E290
:1009100092E09F938F93CE0101963C019F938F931A
:100920000E945411860120E2A30164E082E00E944B
:1009300081000F900F900F900F900F900F90F50186
:100940008285813021F5F9EC8F16910450F422E371
:100950008216910458F40F2EF2E38F2E912CF02D75
:1009600005C00F2EF8EC8F2E912CF02DF50120856F
:100970003185A4E6B0E00E946410940140E050E0AC
:100980000E943C10309355032093540307C0F50197
:10099000808591859093550380935403C6010E94EE
:1009A000D9001092560310925703109258031092D8
:1009B000590381E090E090935B0380935A03209168
:1009C000540330915503ADECBCEC0E946410969535
:1009D0008795969587959695879520915A0330919E
:1009E0005B0382179307A8F410925E0310925C03D6
:1009F00010925D0310925603109257031092580301
:100A00001092590310925B0310925A038BB18260CB
:100A10008BB980915A0390915B03892B51F0F110AF
:100A200002C0EE2031F081E090E090935B03809370
:100A30005A03FF2001F1EE20F1F080915E03811155
:100A40001AC08BB18D7F8BB983E080935E031092C7
:100A50005C03860120E24EE252E065E081E00E9404
:100A6000810020E244E352E065E082E00E948100E0
:100A7000C6010E94D900F11016C0E11014C0809187
:100A80005E03833081F410925E0310925C03109237
:100A90005603109257031092580310925903B50150
:100AA000C6010E941E028091560390915703A091A7
:100AB0005803B0915903813A9F40A105B105B8F19F
:100AC0008BB18D7F8BB9860120E246E751E065E06E
:100AD00081E00E94810020E24BE352E065E082E089
:100AE0000E948100C6010E94D90010925E031092FC
:100AF0005C0310925D0310925603109257031092FC
:100B000058031092590310925B0310925A032FEF6F
:100B100083E294EF215080409040E1F700C0000054
:100B20008BB182608BB9B501C6010E941E0261962D
:100B30000FB6F894DEBF0FBECDBFDF91CF911F91EE
:100B40000F91FF90EF90DF90CF90BF90AF909F906C
:100B50008F907F906F900895E1E8F0E010821092FE
:100B60008000AFE6B0E08C9181608C938CE396EFCF
:100B700090938500809384008081826080830895B3
:100B8000E1EBF0E010821092B000A0E7B0E08C91B1
:100B900081608C9388E38093B2008081826080833F
:100BA0000895CF93DF93CDB7DEB7EB970FB6F894E8
:100BB000DEBF0FBECDBF8AB183608AB98AB18460BF
:100BC0008AB9E1E6F0E080E8808310828BB1826030
:100BD0008BB98BB18B7F8BB983E089838CE191E0FA
:100BE0009B838A831C8281E08D8326E633E03F83EA
:100BF0002E83188620ED37E03A8729878B8785E09A
:100C00000E941D01882349F0AE014F5F5F4F6BE0EA
:100C100080E190E00E94150108C0AE014F5F5F4F78
:100C20006BE080E190E00E940D018EE0E0E1F1E0F8
:100C3000DE011C9601900D928A95E1F78D81882343
:100C400009F465C02A803B80E981F0E0EE0FFF1FC8
:100C500021E030E02C0F3D1FE20FF31F2385348588
:100C6000ADECBCEC0E94641096958795969587959F
:100C7000969587958C01A82EB12EC12CD12CE12CF4
:100C8000F12C00E010E0222D332D40E050E060E038
:100C900070E080E090E00E94731004E00E942B114D
:100CA000A22EB32EC42ED52EE62EF72EE82F192F06
:100CB0000E942B110E2F0E944411A22EB32EC42E7F
:100CC000D52EE62EF72EE82F192F04E00E942B11C7
:100CD0000E2F0E9444116894AA24A4F80F2EF7E264
:100CE000BF2EF02DC12CD12CE12CF12C00E010E016
:100CF0000E94CE10822F932FA42FB52F80936103D3
:100D000090936203A0936303B09364035AC02A8054
:100D10003B802E813F81ADECBCEC0E946410969527
:100D2000879596958795969587958C01A82EB12ED7
:100D3000C12CD12CE12CF12C00E010E0222D332D20
:100D400040E050E060E070E080E090E00E947310CE
:100D500004E00E942B11A22EB32EC42ED52EE62E17
:100D6000F72EE82F192F0E942B110E2F0E944411ED
:100D7000A22EB32EC42ED52EE62EF72EE82F192F35
:100D800004E00E942B110E2F0E9444116894AA24A3
:100D9000A4F80F2EF7E2BF2EF02DC12CD12CE12CA0
:100DA000F12C00E010E00E94CE10822F932FA42F90
:100DB000B52F8093610390936203A0936303B09374
:100DC00064030E94AC050E94C0053FE78AE196E0FB
:100DD000315080409040E1F700C000000E941109AE
:100DE0002FE73AE186E0215030408040E1F700C033
:100DF00000008BB18D7F8BB90E94A109CE014A966C
:100E00000E94B3019AE220E53EEF80E0915020403D
:100E100030408040D9F70000BE016F5F7F4FCE01A8
:100E20004A960E941E027894BE016F5F7F4FCE01EA
:100E30004A960E9476030E941D0A84FFF5CF8BB16B
:100E40008D7F8BB9BE016F5F7F4FCE014A960E94A6
:100E50004C0FAE014F5F5F4F6BE080E190E00E946E
:100E600015018D81882309F465C02A803B80E981C2
:100E7000F0E0EE0FFF1F21E030E02C0F3D1FE20FEE
:100E8000F31F23853485ADECBCEC0E94641096956D
:100E9000879596958795969587958C01A82EB12E66
:100EA000C12CD12CE12CF12C00E010E0222D332DAF
:100EB00040E050E060E070E080E090E00E9473105D
:100EC00004E00E942B11A22EB32EC42ED52EE62EA6
:100ED000F72EE82F192F0E942B110E2F0E9444117C
:100EE000A22EB32EC42ED52EE62EF72EE82F192FC4
:100EF00004E00E942B110E2F0E9444116894AA2432
:100F0000A4F80F2EF7E2BF2EF02DC12CD12CE12C2E
:100F1000F12C00E010E00E94CE10822F932FA42F1E
:100F2000B52F8093610390936203A0936303B09302
:100F300064035AC02A803B802E813F81ADECBCEC1B
:100F40000E946410969587959695879596958795B6
:100F50008C01A82EB12EC12CD12CE12CF12C00E05B
:100F600010E0222D332D40E050E060E070E080E0A2
:100F700090E00E94731004E00E942B11A22EB32E69
:100F8000C42ED52EE62EF72EE82F192F0E942B11F6
:100F90000E2F0E944411A22EB32EC42ED52EE62E63
:100FA000F72EE82F192F04E00E942B110E2F0E941C
:100FB00044116894AA24A4F80F2EF7E2BF2EF02D56
:100FC000C12CD12CE12CF12C00E010E00E94CE10BD
:100FD000822F932FA42FB52F8093610390936203E8
:100FE000A0936303B0936403BE016F5F7F4FCE0194
:100FF0004A960E941E0210925E0310925C031092A9
:101000005D0310925B0310925A03109256031092E4
:101010005703109258031092590306CF1F920F9254
:101020000FB60F9211248F939F93AF93BF93EF93BB
:10103000FF9310928100109280008CE396EF9093C2
:1010400085008093840080915003909151038A30F1
:10105000910530F40196909351038093500332C070
:10106000109251031092500380915E03813021F061
:1010700080915E038230B9F480915D03811113C0C9
:101080008091560390915703A0915803B091590352
:101090000196A11DB11D8093560390935703A09311
:1010A0005803B093590380915A0390915B03892BA5
:1010B00049F080915A0390915B03019690935B03F2
:1010C00080935A0380914F0381111CC099B198738A
:1010D000903241F099B19873903121F099B19873A1
:1010E000983081F489B188738093600380915F03A5
:1010F000882321F084E680934F0309C08AEF809310
:101100004F0305C0882319F0815080934F038091CD
:101110005C03811102C098EC01C092E380914E0300
:10112000891720F48F5F80934E0306C09BB184E043
:1011300089278BB910924E03E1E8F0E0808182604C
:101140008083FF91EF91BF91AF919F918F910F900D
:101150000FBE0F901F9018951F920F920FB60F920F
:1011600011248F93EF93FF93E1EBF0E01082109244
:10117000B00088E38093B200808182608083FF9119
:10118000EF918F910F900FBE0F901F90189585B122
:10119000846085B985E88A95F1F7000085B18B7F79
:1011A00085B9089598B1907F98B998B182958F705C
:1011B000982B98B90E94C7080895CF93C82F85B17E
:1011C000816085B98C2F0E94D2088C2F8295807FF8
:1011D0000E94D20885EE90E00197F1F700C0000070
:1011E000CF910895CF93C82F85B18E7F85B98C2F6D
:1011F0000E94D2088C2F8295807F0E94D20881EDB8
:1012000090E00197F1F700C00000CF91089581E0D0
:101210000E94F2088FE097E20197F1F700C000000A
:10122000089587B18F6087B984B1876084B988B128
:10123000807F88B985B1887F85B92FE58AEE90E0F7
:10124000215080409040E1F700C0000080E30E9400
:10125000D20887EA91E60197F1F700C000000E94EA
:10126000C70887E893E10197F1F700C000000E94EA
:10127000C70887E893E10197F1F700C0000080E21A
:101280000E94D20887EA91E60197F1F700C00000BA
:1012900088E20E94F2088CE00E94F20886E00E9438
:1012A000F2080E9407090895623059F018F461307D
:1012B00031F00895633039F0643039F00895805882
:1012C00005C0805403C0805701C080530E94F208BB
:1012D0000895CF93DF93EC0103C021960E94DD08AF
:1012E00088818111FACFDF91CF910895CF93DF9359
:1012F000982F862FEA01692F0E945409CE010E947F
:101300006909DF91CF9108950F931F93CF938B01BC
:1013100090E0880F991F880F991F880F991F80648C
:101320000E94F208C0E007C0F801EC0FF11D8081B7
:101330000E94DD08CF5FC830B8F3CF911F910F91A5
:101340000895CF93DF93CDB7DEB7E8970FB6F89443
:10135000DEBF0FBECDBF88E0EEE1F1E0DE01119609
:1013600001900D928A95E1F7BE016F5F7F4F81E09A
:101370000E94840988E0E6E2F1E0DE01199601901E
:101380000D928A95E1F7BE01675F7F4F82E00E9470
:10139000840988E0EEE2F1E0DE01519601900D92C1
:1013A0008A95E1F7BE016F5E7F4F83E00E9484095A
:1013B00088E0E6E3F1E0DE01599601900D928A950E
:1013C000E1F7BE01675E7F4F84E00E94840988E0F8
:1013D000EEE3F1E0DE01919601900D928A95E1F73E
:1013E000BE016F5D7F4F85E00E94840988E0E6E4DE
:1013F000F1E0DE01999601900D928A95E1F7BE0128
:10140000675D7F4F86E00E94840988E0E6E4F1E0B2
:10141000DE01D19601900D928A95E1F7BE016F5CD5
:101420007F4F87E00E948409E8960FB6F894DEBFEC
:101430000FBECDBFDF91CF910895809160038032C0
:1014400041F080916003803121F080916003883009
:1014500029F4809160031092600308951092600354
:1014600080E008958F929F92AF92BF92CF92DF92C9
:10147000FF920F931F93CF93DF93CDB7DEB7A7975C
:101480000FB6F894DEBF0FBECDBF6C01F62E198AE1
:1014900042E552E06BE0CE0142960E94EB004CE543
:1014A00052E06BE0CE014D960E94EB0086E0F81210
:1014B00043C0AF2CB12CF5013197EE0FFF1FEE5F4B
:1014C000FE4F81818F9380818F93CE0142969F93AF
:1014D0008F9384E692E09F938F93CE0101964C0107
:1014E0009F938F930E945411860120E2A40161E032
:1014F00081E00E948100F501EE0FFF1FEE5FFE4FBD
:1015000081818F9380818F93CE014D969F938F938E
:101510008BE692E09F938F939F928F920E9454113B
:1015200020E2A40161E082E00E9481000FB6F894FD
:10153000DEBF0FBECDBF42C0AF2CB12CF501EE0F08
:10154000FF1FEE5FFE4F81818F9380818F93CE01CD
:1015500042969F938F938BE692E09F938F93CE0159
:1015600001964C019F938F930E945411860120E2B3
:10157000A40161E081E00E948100F5013196EE0F47
:10158000FF1FEE5FFE4F81818F9380818F93CE018D
:101590004D969F938F9384E692E09F938F939F92B3
:1015A0008F920E94541120E2A40161E082E00E9427
:1015B00081000FB6F894DEBF0FBECDBFC6010E94FA
:1015C000D9000E941D0A85FF47C0FF2009F444C0CE
:1015D000FA94AF2CB12CF501EE0FFF1FEE5FFE4F1A
:1015E00081818F9380818F93CE0142969F938F93B9
:1015F0008BE692E09F938F93CE0101964C019F93CF
:101600008F930E945411860120E2A40161E081E0E1
:101610000E948100F5013196EE0FFF1FEE5FFE4F35
:1016200081818F9380818F93CE014D969F938F936D
:1016300084E692E09F938F939F928F920E94541121
:1016400020E2A40161E082E00E9481000FB6F894DC
:10165000DEBF0FBECDBFB2CF83FF4AC02F2D30E01B
:10166000263031050CF044C0F394AF2CB12CF501B9
:101670003197EE0FFF1FEE5FFE4F81818F938081C8
:101680008F93CE0142969F938F9384E692E09F932F
:101690008F93CE0101964C019F938F930E9454111A
:1016A000860120E2A40161E081E00E948100F50151
:1016B000EE0FFF1FEE5FFE4F81818F9380818F932E
:1016C000CE014D969F938F938BE692E09F938F93DD
:1016D0009F928F920E94541120E2A40161E082E067
:1016E0000E9481000FB6F894DEBF0FBECDBF66CF5B
:1016F00084FF64CF8F2DA7960FB6F894DEBF0FBE80
:10170000CDBFDF91CF911F910F91FF90DF90CF90D0
:10171000BF90AF909F908F9008952F923F924F92DD
:101720005F926F927F928F929F92AF92BF92CF9271
:10173000DF92EF92FF920F931F93CF93DF93CDB77A
:10174000DEB763970FB6F894DEBF0FBECDBF4C0176
:101750007B8B6A8B542E452E39011801198A6A89B0
:101760007B899E012F5F3F4F5901C9010E944D1196
:10177000840120E2A50161E081E00E9481004F9296
:101780005F92DF92CF9282E792E09F938F93BF9216
:10179000AF920E94541120E2A50161E082E00E9414
:1017A0008100C4010E94D9000E941D0A0FB6F8945E
:1017B000DEBF0FBECDBF85FF06C0C214D30418F430
:1017C000CE0CDF1CCCCF83FF06C06C147D0418F454
:1017D000CE18DF08C4CF84FFC2CFC60163960FB610
:1017E000F894DEBF0FBECDBFDF91CF911F910F9157
:1017F000FF90EF90DF90CF90BF90AF909F908F9031
:101800007F906F905F904F903F902F9008956F92D0
:101810007F928F929F92AF92BF92CF92DF92EF9280
:10182000FF920F931F93CF93DF93CDB7DEB76197EE
:101830000FB6F894DEBF0FBECDBF6C014B015A014D
:101840007901198A860120E24BE752E061E081E0EC
:101850000E9481009701ADECBCEC0E946410AC01C9
:101860005695479556954795569547959A01220F57
:10187000331FCA01880F991F880F991F880F991F5E
:10188000820F931F9701281B390BC9019F932F9338
:101890005F934F938AE892E09F938F93CE010196D6
:1018A0003C019F938F930E94541120E2A30161E0B9
:1018B00082E00E948100C6010E94D9000E941D0A98
:1018C0000FB6F894DEBF0FBECDBF85FF07C0EA1488
:1018D000FB0420F43FEFE31AF30AB4CF83FF07C001
:1018E0008E149F0420F481E0E81AF108ABCF84FF46
:1018F000A9CFC70161960FB6F894DEBF0FBECDBF6A
:10190000DF91CF911F910F91FF90EF90DF90CF90DB
:10191000BF90AF909F908F907F906F9008956F923F
:101920007F928F929F92AF92BF92CF92DF92EF926F
:10193000FF920F931F93CF93DF93CDB7DEB7AB9793
:101940000FB6F894DEBF0FBECDBF6C015A01722EE8
:10195000602E89E992E09A8389838CE992E09C83E6
:101960008B831D8AAB016BE0CE0146960E94EB0093
:10197000A5016BE0CE0181960E94EB00E71038C014
:1019800089E992E09F938F93CE0146969F938F9320
:101990008BE692E09F938F937E0185E0E80EF11C29
:1019A000FF92EF920E945411860120E2A70161E0AC
:1019B00081E00E9481008CE992E09F938F93CE0199
:1019C00081969F938F9384E692E09F938F93FF92EB
:1019D000EF920E94541120E2A70161E082E00E9490
:1019E00081000FB6F894DEBF0FBECDBFF12C38C01A
:1019F00089E992E09F938F93CE0146969F938F93B0
:101A000084E692E09F938F935E0195E0A90EB11C4E
:101A1000BF92AF920E945411860120E2A50161E0BD
:101A200081E00E9481008CE992E09F938F93CE0128
:101A300081969F938F938BE692E09F938F93BF92B3
:101A4000AF920E94541120E2A50161E082E00E9461
:101A500081000FB6F894DEBF0FBECDBFFF24F39414
:101A6000C6010E94D9000E941D0A85FF50C0FF20B8
:101A700009F44DC0FA94AF2CB12CF501EE0FFF1F05
:101A800081E090E08C0F9D1FE80FF91F81818F93FB
:101A900080818F93CE0146969F938F938BE692E041
:101AA0009F938F934E0195E0890E911C9F928F9288
:101AB0000E945411860120E2A40161E081E00E94AD
:101AC0008100F5013196EE0FFF1F81E090E08C0F51
:101AD0009D1FE80FF91F81818F9380818F93CE0125
:101AE00081969F938F9384E692E09F938F939F922A
:101AF0008F920E94541120E2A40161E082E00E94D2
:101B000081000FB6F894DEBF0FBECDBFA9CF83FF13
:101B10004EC0F1104CC0F394AF2CB12CF5013197AD
:101B2000EE0FFF1F81E090E08C0F9D1FE80FF91F63
:101B300081818F9380818F93CE0146969F938F935F
:101B400084E692E09F938F934E0195E0890E911C5D
:101B50009F928F920E945411860120E2A40161E0BD
:101B600081E00E948100AA0CBB1CE1E0F0E0EC0FD8
:101B7000FD1FEA0DFB1D81818F9380818F93CE0124
:101B800081969F938F938BE692E09F938F939F9282
:101B90008F920E94541120E2A40161E082E00E9431
:101BA00081000FB6F894DEBF0FBECDBF59CF84FFC2
:101BB00057CFFF2011F0862D01C0872DAB960FB6B1
:101BC000F894DEBF0FBECDBFDF91CF911F910F9173
:101BD000FF90EF90DF90CF90BF90AF909F908F904D
:101BE0007F906F9008955F926F927F928F929F92F5
:101BF000AF92BF92CF92DF92EF92FF920F931F931B
:101C0000CF93DF93CDB7DEB761970FB6F894DEBF01
:101C10000FBECDBF6C0181EA92E09F938F9386EA5D
:101C200092E09F938F93CE0101967C019F938F93B7
:101C30000E945411860120E2A70161E081E00E9428
:101C400081001F928AE78F931F9282E78F931F92E2
:101C50000F2EF5E6BF2EF02DBF921F928DE48F93CD
:101C60001F9280E28F931F920F2EFBE66F2EF02DB6
:101C70006F921F920F2EF9E67F2EF02D7F921F920A
:101C80000F2EFEE68F2EF02D8F921F920F2EF1E673
:101C90009F2EF02D9F921F920F2EFAE6AF2EF02D61
:101CA000AF921F928F931F928AE38F931F9289E7BF
:101CB0008F931F920F2EF2E65F2EF02D5F920EE7AC
:101CC00011E01F930F93FF92EF920E9454110FB6F1
:101CD000F894DEBF0FBECDBF1F92BF921F9284E665
:101CE0008F931F928EE28F931F925F921F92BF92EB
:101CF0001F9297E79F931F9290E49F931F929DE6F8
:101D00009F931F928F931F926F921F927F921F92A9
:101D10008F921F929F921F92AF921F930F93FF92E9
:101D2000EF920E9454110FB6F894DEBF0FBECDBFE4
:101D3000860120E2A70162E082E00E948100C601E4
:101D40000E94D9000E941D0A84FFFCCF61960FB645
:101D5000F894DEBF0FBECDBFDF91CF911F910F91E1
:101D6000FF90EF90DF90CF90BF90AF909F908F90BB
:101D70007F906F905F900895AF92BF92CF92DF9265
:101D8000EF92FF920F931F93CF93DF93A82EB92E5C
:101D90006B012130D9F5C42FD0E0FE01EE0FFF1FFB
:101DA000E60FF71F81818F9380818F938EE692E0FB
:101DB0009F938F93BF92AF920E94541120E24A2DBD
:101DC0005B2D61E081E00E9481002196CC0FDD1F38
:101DD000CC0DDD1D89818F9388818F9387E692E0FA
:101DE0009F938F93BF92AF920E94541120E24A2D8D
:101DF0005B2D61E082E00E9481008DB79EB70C965A
:101E00000FB6F8949EBF0FBE8DBF3BC0C42FD0E06D
:101E1000FE01E150F048EE0FFF1FE60FF71F818132
:101E20008F9380818F9387E692E09F938F93BF92E9
:101E3000AF920E94541120E24A2D5B2D61E081E0B7
:101E40000E948100CC0FDD1FCC0DDD1D89818F9399
:101E500088818F938EE692E09F938F93BF92AF928B
:101E60000E94541120E24A2D5B2D61E082E00E9425
:101E700081008DB79EB70C960FB6F8949EBF0FBE2B
:101E80008DBFDF91CF911F910F91FF90EF90DF9069
:101E9000CF90BF90AF9008958F929F92AF92BF92D4
:101EA000CF92DF92EF92FF920F931F93CF93DF9326
:101EB000CDB7DEB7A3970FB6F894DEBF0FBECDBF88
:101EC0005C014B0182E1EEE4F1E0DE01119601904C
:101ED0000D928A95E1F71BA2850121E040E0BE0149
:101EE0006F5F7F4FCE0143960E94BC0EF12CC5015F
:101EF0000E94D9000E941D0A85FF0EC0FF2061F0DC
:101F0000FA94850121E04F2DBE016F5F7F4FCE0116
:101F100043960E94BC0EEBCF83FF11C02F2D30E003
:101F20002830310564F4F394850122E04F2DBE0181
:101F30006F5F7F4FCE0143960E94BC0ED8CF84FFC7
:101F4000D6CF8F2D90E08830910508F082C0FC013B
:101F5000E65AFF4F0C945E10F4016081C5010E94A7
:101F6000320AF401808381E0848373C081E080932E
:101F70005F03F401C180D280EE24E394F12C00EAE7
:101F80001FE02AE030E04AEF52E065EB72E0C50165
:101F90000E948D0BF4019283818310925F0359C0DC
:101FA000F401E38000E021E04EEB52E064EC72E0EB
:101FB000C5010E948F0CF40183834BC081E08093A4
:101FC0005F03F4012581368148E853E16AE070E05F
:101FD000C5010E94070CF401968385831482109238
:101FE0005F0337C0F401E78000E021E04EE153E0F9
:101FF0006BEC72E0C5010E948F0CF401878329C04D
:10200000F401C084D1840F2EF4EFEF2EFF24F3945B
:10201000F02D00E117E224EF31E043ED52E066EDF0
:1020200072E0C5010E948D0BF4019187808711C079
:10203000F401E28400E021E048E353E064EE72E062
:10204000C5010E948F0CF401828703C0C5010E9464
:10205000F30DA3960FB6F894DEBF0FBECDBFDF9190
:10206000CF911F910F91FF90EF90DF90CF90BF9095
:10207000AF909F908F900895A1E21A2EAA1BBB1BD0
:10208000FD010DC0AA1FBB1FEE1FFF1FA217B30744
:10209000E407F50720F0A21BB30BE40BF50B661F5A
:1020A000771F881F991F1A9469F76095709580951E
:1020B00090959B01AC01BD01CF010895EE0FFF1F6C
:1020C0000590F491E02D0994A29FB001B39FC00147
:1020D000A39F700D811D1124911DB29F700D811D54
:1020E0001124911D0895DF93CF931F930F939A9D11
:1020F000F02D219FF00D8B9DF00D8A9DE02DF10DAF
:10210000039FF00D029FE00DF11D4E9DE00DF11DAE
:102110005E9DF00D4F9DF00D7F936F93BF92AF9238
:102120005F934F93D5010E9464108B01AC01D701DE
:102130000E946410EB01E80FF91FD6010E94C31042
:102140002F913F91D6010E946410C60FD71FE81F40
:10215000F91FAF91BF910E94C3102F913F910E9430
:102160006410C60FD71FE81FF91FD6010E94641024
:10217000E60FF71F9801BE01CF0111240F911F91A7
:10218000CF91DF9108950E946410460F571FC81F1A
:10219000D91F08F431960895689401C0E8948F928D
:1021A0009F92CF93DF930E94DA10DF91CF919F909F
:1021B0008F90089588249924F401E401B0E49F935A
:1021C000AA279A158B049C04ED05FE05CF05D007C0
:1021D000A10798F4AD2FDC2FCF2FFE2FE92D982CDF
:1021E000892E982F872F762F652F542F432F322F2C
:1021F0002227B85031F7BF9127C01B2EBF91BB27B4
:10220000220F331F441F551F661F771F881F991FFA
:10221000881C991CEE1FFF1FCC1FDD1FAA1FBB1FB0
:102220008A149B04EC05FD05CE05DF05A007B10768
:1022300048F08A189B08EC09FD09CE09DF09A00BBC
:10224000B10B21601A94E1F62EF49401AF01BE01A6
:10225000CD01000C08950F93083090F0982F872F30
:10226000762F652F542F432F322F22270850F4CF7B
:10227000220F331F441F551F661F771F881F991F8A
:102280000A95B2F70F9108952A193B094C095D0987
:102290006E097F09800B910B0895FB01DC01019011
:1022A0000D920020E1F70895AEE0B0E0EAE5F1E13B
:1022B0000C9445140D891E8986E08C831A8309834A
:1022C0008FEF9FE79E838D83AE01475E5F4F6F89DF
:1022D000788DCE0101960E947611EF81F885E00F8E
:1022E000F11F10822E96E4E00C946114ABE0B0E094
:1022F000ECE7F1E10C9437146C017B018A01FC01DD
:1023000017821682838181FFCCC1CE0101963C01E8
:10231000F6019381F70193FD859193FF81917F01F0
:10232000882309F4BAC1853239F493FD859193FF6E
:1023300081917F01853229F4B60190E00E946D13EE
:10234000E7CF912C212C312CFFE1F315D8F08B3203
:1023500079F038F4803279F08332A1F4232D2061B2
:102360001DC08D3261F0803369F4232D216016C0C9
:10237000832D8260382EE32DE4603E2E2AC0F32D9B
:10238000F8601DC037FC2DC020ED280F2A3040F02A
:102390008E32B9F436FC81C1232D2064322E19C04F
:1023A00036FE06C08AE0989E200D1124922E11C0A0
:1023B000EAE02E9E200D1124222EF32DF0623F2EF6
:1023C00008C08C3621F4832D8068382E02C08836F0
:1023D00041F4F70193FD859193FF81917F01811174
:1023E000B3CF982F9F7D9554933028F40C5F1F4FE7
:1023F0009FE399830DC0833631F0833771F08335C5
:1024000009F059C021C0F801808189830E5F1F4FF8
:1024100088248394912C530113C02801F2E04F0EBD
:10242000511CF801A080B18036FE03C0692D70E018
:1024300002C06FEF7FEFC5010E9462134C01820161
:10244000F32DFF773F2E16C0280122E0420E511CCB
:10245000F801A080B18036FE03C0692D70E002C093
:102460006FEF7FEFC5010E9457134C01F32DF06809
:102470003F2E820133FC1BC0822D90E08816990606
:10248000B0F4B60180E290E00E946D132A94F4CF7C
:10249000F50137FC859137FE81915F01B60190E02F
:1024A0000E946D1321102A9421E0821A9108811450
:1024B000910471F7E8C0843611F0893641F5F801CE
:1024C00037FE07C060817181828193810C5F1F4F4D
:1024D00008C060817181072E000C880B990B0E5F7C
:1024E0001F4FF32DFF763F2E97FF09C090958095E3
:1024F000709561957F4F8F4F9F4FF0683F2E2AE078
:1025000030E0A3010E94A913882E861845C08537A4
:1025100031F4232D2F7EB22E2AE030E025C0932DFA
:10252000997FB92E8F36C1F018F4883579F0B5C08F
:10253000803719F0883721F0B0C0E92FE061BE2E56
:10254000B4FE0DC0FB2DF460BF2E09C034FE0AC0DE
:10255000292F2660B22E06C028E030E005C020E119
:1025600030E002C020E132E0F801B7FE07C0608130
:102570007181828193810C5F1F4F06C060817181E0
:1025800080E090E00E5F1F4FA3010E94A913882EE8
:102590008618FB2DFF773F2E36FE0DC0232D2E7F94
:1025A000A22E891458F434FE0BC032FC09C0832DCE
:1025B0008E7EA82E05C0B82CA32C03C0B82C01C059
:1025C000B92CA4FE0FC0FE01E80DF11D80818033FF
:1025D00021F49A2D997EA92E09C0A2FE06C0B394BB
:1025E000B39404C08A2D867809F0B394A3FC11C07B
:1025F000A0FE06C0B21488F4280C922C9B180EC0C2
:10260000B21460F4B60180E290E00E946D13B394BE
:10261000F7CFB21418F42B1802C0982C212CA4FE6A
:1026200010C0B60180E390E00E946D13A2FE17C0B7
:10263000A1FC03C088E790E002C088E590E0B60105
:102640000CC08A2D867859F0A1FE02C08BE201C031
:1026500080E2A7FC8DE2B60190E00E946D13891420
:1026600038F4B60180E390E00E946D139A94F7CF9E
:102670008A94F301E80DF11D8081B60190E00E947B
:102680006D138110F5CF222009F442CEB60180E20D
:1026900090E00E946D132A94F6CFF601868197810F
:1026A00002C08FEF9FEF2B96E2E10C945314FC01D4
:1026B0000590615070400110D8F7809590958E0F6D
:1026C0009F1F0895FC016150704001900110D8F7E0
:1026D000809590958E0F9F1F08950F931F93CF9312
:1026E000DF93FB01238121FD03C08FEF9FEF2CC0FF
:1026F00022FF16C046815781248135814217530736
:1027000044F4A081B1819D012F5F3F4F318320832D
:102710008C93268137812F5F3F4F3783268314C0E8
:102720008B01EC01FB010084F185E02D0995892BDB
:10273000E1F6D80116968D919C9117970196179600
:102740009C938E931697CE01DF91CF911F910F919D
:102750000895FA01AA27283051F1203181F1E89437
:102760006F936E7F6E5F7F4F8F4F9F4FAF4FB1E084
:102770003ED0B4E03CD0670F781F891F9A1FA11D7F
:10278000680F791F8A1F911DA11D6A0F711D811D80
:10279000911DA11D20D009F468943F912AE0269F45
:1027A00011243019305D3193DEF6CF010895462FA4
:1027B0004770405D4193B3E00FD0C9F7F6CF462F85
:1027C0004F70405D4A3318F0495D31FD40524193EE
:1027D00002D0A9F7EACFB4E0A695979587957795AB
:1027E0006795BA95C9F700976105710508959B0132
:1027F000AC010A2E06945795479537952795BA95BB
:10280000C9F7620F731F841F951FA01D0895DC0177
:10281000CB01FC01F999FECF06C0F2BDE1BDF89AEB
:10282000319600B40D9241505040B8F70895F9998F
:10283000FECF92BD81BDF89A992780B50895DC013D
:10284000CB0103C02D910E942A1441505040D0F773
:102850000895262FF999FECF1FBA92BD81BD20BDE4
:102860000FB6F894FA9AF99A0FBE019608952F922E
:102870003F924F925F926F927F928F929F92AF9210
:10288000BF92CF92DF92EF92FF920F931F93CF935D
:10289000DF93CDB7DEB7CA1BDB0B0FB6F894DEBFF4
:1028A0000FBECDBF09942A88398848885F846E841A
:1028B0007D848C849B84AA84B984C884DF80EE8064
:1028C000FD800C811B81AA81B981CE0FD11D0FB66D
:1028D000F894DEBF0FBECDBFED010895F894FFCF91
:1028E000FFFF44024602A40248024B024E0250027D
:1028F000E1004001E0016603B004400698080004CE
:10290000021F020400000A000E010F110F000A004E
:102910000E1111110E000A00111111130D0000000B
:102920000E111E111E10040A110000110A040E03DC
:10293000EF02FD0207031603250332034103490397
:10294000212174657874207A75206C616E6721216D
:10295000006B6D2F68204D657373756E670025637E
:102960002563256325632563256325632563256327
:1029700025632563256325632563004265726569C8
:10298000742E2E2E002534646D6D205370757220C8
:102990002573002534646D6D20312F25642C25307E
:1029A0003164002534646D6D204D657373756E67F9
:1029B00000257320616B74697600312F25642C2506
:1029C00030316420616B746976004D41583A2020A3
:1029D0004D494E3A2020414B543A00476573636895
:1029E00077696E6469676B6569743A0021756E6713
:1029F000046C746967210025346420202534642028
:102A00002025346400253364206B6D2F6800476CEB
:102A10006569730062656C65677400756E67046C48
:102A200074696700320031004830005454004E0091
:102A30005A004D610573746162732D00617573777F
:102A400061686C0025732020257300257320012503
:102A500073002006202535642573006E6575657248
:102A6000204D6105737461623A0020062031202FE9
:102A70002025642C25303164006A61006E65696E22
:102A80000056332E300053572D56657273696F6EA2
:102A90003A2025730044697374616E7A3A0068695C
:102AA00067683F00616374697665004D41582B414A
:102AB0005647006D7300426C6F636B6965727A658F
:102AC00069743A00426C6F636B6965727A2E0044D8
:102AD000697374616E7A20696E206D6D00506F6C41
:102AE00061726974027400667265696572204D6175
:102AF0000573746162004D41582B41564720616B4C
:102B00007469763F00426C6F636B6965727A6569C0
:102B10007400426C6F636B20616461707469763F0E
:0E2B20000053572D496E666F0065786974008A
:00000001FF
