:1000000021C041C744C043C042C0F3C640C0A1C6DE
:100010003EC03DC03CC03BC03AC039C038C0000003
:100020000000370000000000380001030000040059
:10003000000000003600020202020202010204086F
:100040001020700711241FBECFE5D2E0DEBFCDBF68
:1000500021E0AAE7B0E001C01D92AC32B207E1F79F
:1000600010E0A0E6B0E0E0EDF8E102C005900D92EE
:10007000AA37B107D9F710E0C2E2D0E003C0219758
:10008000FE010ADCC132D107D1F75AD71FCCB8CF55
:100090009FB7F89422E132E03093E5002093E4002A
:1000A0009FBF95B79C7F892B85BF8BB780648BBF23
:1000B000089580E090E0892B09F0A2CF089508957B
:1000C0002FB7F894FC01458556853AE06095089471
:1000D00020F478B3752378BB04C078B3742B78BB55
:1000E000000081D680D67FD67ED666953A9581F778
:1000F0002FBF81E090E00895DC011F96ED91FC9107
:1001000020A131A182A193A12817390779F0A2A1DA
:10011000B3A1AE0FBF1F8C9122A133A12F5F3F4F20
:100120002F71332733A322A390E008958FEF9FEF21
:100130000895DC011F96ED91FC9120A131A182A1CF
:1001400093A12817390739F082A193A1E80FF91F6D
:10015000808190E008958FEF9FEF0895DC011F9656
:10016000ED91FC9180A191A122A133A1821B930B5F
:100170008F7199270895CF92DF92EF92FF920F939C
:100180001F93CF93DF936C01EB017B01E40EF51E0F
:1001900010E000E0CE15DF0561F06991D601ED9128
:1001A000FC910190F081E02DC6010995080F191FFF
:1001B000F1CFC801DF91CF911F910F91FF90EF9088
:1001C000DF90CF9008953FB7F8948091840090918C
:1001D0008500A0918600B091870022B708B601FE85
:1001E00005C02F3F19F00196A11DB11D3FBFBA2FC9
:1001F000A92F982F8827BC01CD01620F711D811D89
:10020000911D43E0660F771F881F991F4A95D1F70C
:1002100008952FB7F89460918000709181008091CB
:100220008200909183002FBF0895CF93C82F80E064
:1002300090E0892B49F08091A6008C1729F081E08D
:10024000C11101C080E0DCDEC093A60060E070E078
:10025000CB01C111DEDF6093A7007093A8008093EB
:10026000A9009093AA0080E090E0892B51F0809142
:10027000A6008C1731F081E0C11101C080E0CF9160
:10028000BFCECF910895862F08951F93CF93DF930C
:10029000EC01162F80E090E0892B81F0C830D10569
:1002A00069F4662309F1ACDE80E090E0892BB1F0BF
:1002B000612FCE01DF91CF911F91A2CE80E090E01F
:1002C000892BB1F781E0C11592E0D90708F080E0F1
:1002D000111105C0DF91CF911F91089581E02797FB
:1002E0002297C0F780E0F6CF80E090E0892B01F7FD
:1002F00081E0F0CF80E090E0892B21F08091BD007B
:1003000083FD7ECE089591DFE4EAF0E081E087830B
:100310001086EDEAF0E088E0DF011D928A95E9F7AA
:10032000089520E030E0232B09F06ACE3DCACF9338
:10033000DF932091BA003091BB002F3F320721F0AC
:10034000C901DF91CF9108958091BD0087FF2AC038
:1003500086FF0DC089E090E0E4DFC82F81E090E0E7
:10036000E0DF9C2F9093BB008093BA0016C089E019
:1003700090E0D7DFC82F81E090E0D3DF2C2F30E072
:1003800096E0220F331F9A95E1F7207C31708F732E
:10039000282B3093BB002093BA008091BA00909133
:1003A000BB00CFCF85FF0AC081E190E0BADFC82F44
:1003B00082E190E0B6DFC05CDD0BD3CF81E090E05E
:1003C000B0DF90E0CFCF87FF09C08F7701F1813098
:1003D00001F1823001F1833001F18FEF90E0FC01F7
:1003E000E45CFF4F2491FC01EA5CFF4FE491EE23B3
:1003F000B1F0F0E0EE0FFF1FE05DFF4FA591B4916B
:10040000EC91E22381E090E061F480E0089585E0E2
:10041000E5CF82E0E3CF84E0E1CF83E0DFCF80E08F
:1004200090E00895CF92DF92EF92FF920F931F9387
:10043000CF93DF93C8DE6B0180917D0090917E00A9
:10044000E601C81BD90B80918A0090918B00C817D8
:10045000D90708F462C080918E0090918F000197B7
:1004600009F052C0D0927E00C0927D0000918C00B5
:1004700010918D0080918E0090918F0082309105B7
:1004800009F423C18330910509F45EC1019769F431
:1004900080917C00813009F456C008F447C0833055
:1004A00009F491C0843009F4D9C080918E009091F4
:1004B0008F00019791F1C017D10708F07DC180919D
:1004C0007A008F5F80937A008B3038F181E090E082
:1004D00090938F0080938E008091B500811103C0AE
:1004E00081E090E0D5DD1092880010927C0082E5DA
:1004F00090E090938D0080938C0083E290E0909345
:100500008B0080938A0009C08091B6005CDF209147
:1005100088002817190609F4A5CFDF91CF911F9104
:100520000F91FF90EF90DF90CF900895C017D10703
:1005300030F481E080937C00C0937B00B6CF84E0F0
:1005400080937C00B2CFC017D107D8F510927C0001
:1005500080917A008F5F80937A0020917B008C2FAE
:100560000C2E000C990B821B910927FD939597FF88
:1005700003C091958195910949977CF210928F0063
:1005800010928E0082E990E090938D0080938C0011
:1005900082E590E090938B0080938A0010927A001D
:1005A000F09089008091B500811103C08F2D90E0FB
:1005B0006FDD8091B90093E0F91228C08093880024
:1005C00074CF83E0BDCFC017D10710F510928F0014
:1005D00010928E0082E990E090938D0080938C00C1
:1005E00082E590E090938B0080938A0010927A00CD
:1005F000F09089008091B500811103C08F2D90E0AB
:1006000047DD8091B90033E0F316C1F280E0D6CF28
:1006100090918900933009F482E08093890082E010
:1006200090E090938F0080938E0082E990E0909309
:100630008D0080938C0082E590E090938B008093F6
:100640008A001092940080917A0080939500109215
:1006500091001092930010929200CACFC017D10758
:10066000A8F410928F0010928E0082E990E090938F
:100670008D0080938C0082E590E090938B008093B6
:100680008A0010927A00109291008ACF82E090E066
:1006900090938F0080938E0082E990E090938D007C
:1006A00080938C0082E590E090938B0080938A0089
:1006B0001092940080917A0080939500109291009E
:1006C00010929300109292006BCF909191009F5FD7
:1006D0009093910080919200880FC017D107E0F0AD
:1006E00080939200983009F0E6CEE0919400E630D5
:1006F000A9F410928F0010928E0082E990E09093FE
:100700008D0080938C0082E590E090938B00809325
:100710008A0010929100C9CE8160E2CF83E090E020
:1007200090938F0080938E0081E08E0F80939400D1
:1007300090919200F0E0E257FF4F908780919300F4
:10074000892780939300B1CEC017D10728F5109266
:100750008F0010928E001092910082E990E09093A9
:100760008D0080938C0082E590E090938B008093C5
:100770008A00809193008111A2CE88E0E4E9F0E044
:10078000ACE9B0E001900D928A95E1F781E08093A9
:10079000900010927A0089CE80919400863009F4FE
:1007A000A8CF82E090E090938F0080938E0010920B
:1007B00091001092920079CE10927A00AECE90E025
:1007C000FC01E65DFF4F3491FC01E45CFF4F249196
:1007D000FC01EA5CFF4FE491EE23B9F0332329F0EA
:1007E0003130A1F48AB58F778ABDF0E0EE0FFF1F9C
:1007F000EC5DFF4FA591B4918FB7611118C0F894CB
:10080000EC9120952E232C938FBF0895323019F44C
:100810008AB58F7DE9CF333021F480B78F7D80BFDB
:10082000E4CF343011F78CB58F7D8CBDDECFF894DA
:10083000EC912E2BE8CFCF93DF9390E0FC01E45CAA
:10084000FF4F24918A5C9F4FFC0184918823C9F05B
:1008500090E0880F991FFC01E25EFF4FA591B491D3
:10086000FC01EC5DFF4FC591D49161110DC09FB7A4
:10087000F8948C91209582238C9388812823288357
:100880009FBFDF91CF910895623051F49FB7F894E4
:100890003C91822F809583238C93E8812E2BEFCF80
:1008A0008FB7F894EC912E2B2C938FBFEACF833126
:1008B000910580F48131910528F48130910511F082
:1008C000099731F48FEF9FEF9093BB008093BA00AC
:1008D000862F08954D97E1F7677F6093BD00809163
:1008E000A4008F73962F907C892B8093A400EACF6D
:1008F000BF92CF92DF92EF92FF920F931F93CF930D
:10090000DF938B01B42E690182FF1FC083FF15C0E6
:1009100061E0C801BADC8823A9F16B2DC801C7DFEB
:100920008B1130C0F601DF91CF911F910F91FF9095
:10093000EF90DF90CF90BF90099460E0C801A5DCF4
:10094000882301F1C801EDDCEBCF842F8770C1E073
:10095000D0E07E0101C0EE0C8A95EAF7D42FD87062
:10096000CB01DFDCC82FB4FE1AC061E0C8018DDC0A
:10097000882341F0DD2381F0CE296C2FC80197DF59
:100980008C1781F2DF91CF911F910F91FF90EF9023
:10099000DF90CF90BF900895E094CE21EECF60E03D
:1009A000C80173DC882371F3CE21DD2319F0C11156
:1009B000B9CFE8CFCC2309F4B5CFE4CFCF92DF9203
:1009C000EF92FF920F931F93CF93DF937C016B0104
:1009D000C42F122FD42FD07E8091A40087FF29C06E
:1009E000D03EA9F58091A500882389F190E099DC9B
:1009F000D82F8091A50090E0019693DC982F8D2F41
:100A0000E816F90621F56C2F70E0762F6627662729
:100A10007370612B6F5F7F4F2AE731E0402F8C2F7F
:100A2000DF91CF911F910F91FF90EF90DF90CF90CA
:100A30005FCF80FD35C0D03609F469C088F4D0326C
:100A400009F448C0D03409F462C0DD2389F1DF9194
:100A5000CF911F910F91FF90EF90DF90CF9008956D
:100A6000D03A09F48AC0A8F4D03889F780E090E041
:100A70002C2F2F7141E050E0892B49F3B601C701BB
:100A8000DF91CF911F910F91FF90EF90DF90CF906A
:100A9000B7CAD03C09F47FC0D03E09F4B4CFD7CF59
:100AA00046DC8E159F0539F2E114F10421F2CFCF17
:100AB0008C2F8E7061F680E090E0892B41F28C2FB4
:100AC0008170DF91CF911F910F91FF90EF90DF9098
:100AD000CF9096CACF71CF3109F0B9CF80E090E0C6
:100AE000892B09F4B4CF412F4F7769F0413069F079
:100AF000111F1127111F212F30E00FE710E0B60161
:100B0000C7017EDAA4CF41E0F3CF40E0F1CF80E02F
:100B100090E0892BB9F02C2F30E08C2F8F71813031
:100B200029F030F0803121F08131E9F440E001C05A
:100B300041E025FB222720F90DE110E030E0B6016D
:100B4000C7015EDA80E090E0892B09F480CF4C2F5A
:100B5000B601C701DF91CF911F910F91FF90EF90E8
:100B6000DF90CF904DCAC901880F991F8E71C4FBC9
:100B7000442740F9482B4250DCCF80E090E0892B9D
:100B800009F465CF2C2F2F7043E050E0C4FF76CFDF
:100B900042E050E073CFCF71CE3161F0CF3109F038
:100BA00056CF80E090E0212F45E050E0892B09F0FE
:100BB00065CF4DCF80E090E0212F44E050E0892BBD
:100BC00009F05CCF44CFFF920F931F93CF93DF9335
:100BD00001ED10E0D0E0C0E0F801F1908F01CE010E
:100BE000E3D5F81619F06F2DCE01E6D52196C23166
:100BF000D10591F7DF91CF911F910F91FF9008954B
:100C0000CF93C82F8A3039F48091E000882389F08F
:100C100084E0D9DBC82F8091E0006C2F882319F085
:100C200061E0C11160E084E0CADDC093E200CF91D1
:100C3000CACF84E0C8DBC1E0892B69F3C0E0EBCF09
:100C40008093E300880F8093E100BDDF60E083E0E4
:100C5000B6DD10921C0110921D0110921E0110921F
:100C60001F01B1DA6093C2007093C3008093C40087
:100C70009093C50081E792E0A0E0B0E08093BE00D1
:100C80009093BF00A093C000B093C1008091E30097
:100C900062E0181624F060E080E091DD61E080E021
:100CA000CACD1F93CF93DF93442309F44EC0162F70
:100CB000EC018091CF00813019F1823061F1809197
:100CC000DB009091DC00C817D90771F48091E10036
:100CD0009091E3002091DF00121331C09F3F21F07B
:100CE0008F3F11F08FEFACDF8091DD009091DE003F
:100CF000C817D90751F5812FDF91CF911F9180CF70
:100D0000D093DC00C093DB0082E08093CF0060933F
:100D1000DF0059DFD4CF8091DB009091DC008C178D
:100D20009D0721F48091CA00882349F2D093DE0008
:100D3000C093DD001092CF001093E000EACF913015
:100D400099F2813089F281E0CECFDF91CF911F916E
:100D500008951F920F920FB60F9211242F933F9375
:100D60004F935F937F938F939F93AF93BF93EF9333
:100D7000FF934091160120E038E035D034D033D0D5
:100D800032D031D0889476B3742309F00894279533
:100D90003A9509F0F3CF27D026D0E0911901F091D0
:100DA0001A0180A191A101968F71992742A153A1A7
:100DB0008417950739F0A0A1B1A1AE0FBF1F2C93E6
:100DC00091A380A3449AFF91EF91BF91AF919F911E
:100DD0008F917F915F914F913F912F910F900FBE17
:100DE0000F901F90189580911B01982F9A95F1F7FD
:100DF00008951F920F920FB60F9211242F933F93D5
:100E00008F939F93AF93BF938091800090918100C7
:100E1000A0918200B091830030917F0026E0230FE3
:100E20002D3768F129E8230F0396A11DB11D2093EA
:100E30007F008093800090938100A0938200B09304
:100E400083008091840090918500A0918600B091EC
:100E500087000196A11DB11D8093840090938500A9
:100E6000A0938600B0938700BF91AF919F918F911F
:100E70003F912F910F900FBE0F901F9018950296E3
:100E8000A11DB11DD4CF1F920F920FB60F92112446
:100E90002F933F934F935F936F937F938F939F9382
:100EA000AF93BF93EF93FF938091E4009091E5009F
:100EB000892B29F0E091E400F091E5000995FF917C
:100EC000EF91BF91AF919F918F917F916F915F91C2
:100ED0004F913F912F910F900FBE0F901F9018953B
:100EE000EAE0F1E01382128288EE93E0A0E0B0E045
:100EF00084839583A683B78385E690E0918380837E
:100F000086EE90E0908B878782E0848781E08587FA
:100F10008EEF8687118A80E090E5A0E0B0E08093B4
:100F2000200190932101A0932201B093230180938B
:100F30001C0190931D01A0931E01B0931F01089501
:100F400083E08ABD83BF789489B7826089BF80E4DB
:100F50008CBD8FEF8DBD87EC80BF86E886B961E7D9
:100F600070E081ED90E0ABD482E08093DA0081E024
:100F700090E09093DC008093DB0082E090E090931F
:100F8000DE008093DD001092DF001092E00001EDA2
:100F900010E0D0E0C0E0CE0107D4CA30D10508F09F
:100FA000C0C0D8019C91981709F4BDC00CDE109206
:100FB000B50082E08093B60081E08093B90062E0E2
:100FC00082E039DCEEE8F0E086E1DF011D928A95EF
:100FD000E9F782E990E090938D0080938C0082E5A0
:100FE00090E090938B0080938A0080EC8093A40023
:100FF0001092A5008FEF9FEF9093BB008093BA00F3
:101000001092BC0083E0809389008091B9008093A6
:1010100088008091B500811103C083E090E038D84A
:101020008DE190E07ED9682F606C8DE190E03FDC2F
:101030008093BD006AE087E090E039DC6DE088E0F5
:1010400090E035DC80E05FD961E083E0B8DB61E00F
:1010500083E0F1DB61E081E0EEDB62E080E0EBDB8E
:1010600061E084E0E8DB80E0AED9809360008093AB
:10107000D0008091E2006091E000882329F061E0D7
:101080008091E000811160E084E099DB8091E100D3
:10109000823011F481E0D4DD8091E1008E3F11F4C3
:1010A0008FEFCEDDB0E02B2EB0E03B2EC1E78C2ED3
:1010B000C2E09C2EA12CB12C8091A6008823A1F027
:1010C000A8D80091A7001091A8002091A900309104
:1010D000AA00601B710B820B930B653171058105B2
:1010E000910510F080E00FD980919000882309F4D9
:1010F0003EC0F89488E0ECE9F0E0A4E2B1E00190B1
:101100000D928A95E1F710929000789480912401D5
:10111000E82FF0E0EA5DFE4F863068F411928F5FB1
:10112000FBCFF801808321960F5F1F4FC231D1059D
:1011300009F031CF3CCFE0E0F0E0EF2B19F084E292
:1011400091E05ED780912601811195C09091270191
:10115000911191C080E090E0892B11F080E050D790
:101160008091A600882309F483C081E05ED8209195
:10117000E300222309F472C2C0901C01D0901D012B
:10118000E0901E01F0901F018091200190912101BB
:10119000A0912201B0912301C816D906EA06FB06E8
:1011A00008F050C210D84090C2005090C300609028
:1011B000C4007090C50064197509860997090091EB
:1011C000BE001091BF002091C0003091C100601797
:1011D00071078207930708F46FCF50E5C51655E0F5
:1011E000D506E104F104D0F42FED31E040E050E009
:1011F000C701B601EFD220E535E040E050E016D35C
:10120000D501C401821B930BA40BB50B8093BE00C8
:101210009093BF00A093C000B093C1008091BE0026
:101220009091BF00A091C000B091C100840D951DA8
:10123000A61DB71D8093C2009093C300A093C40065
:10124000B093C50081E0BFD861E0892B09F060E070
:1012500081E0B5DA8FEFC81AD80AE80AF80AC09216
:101260001C01D0921D01E0921E01F0921F0124CFBB
:1012700081E049D87CCF9091A600992309F47DC0E4
:101280008057803108F077C081E0CFD7C09124012A
:101290008091AD00C81309C04C2F50E06FEA70E098
:1012A00086E291E0FFD2892B61F01092AC0088E0D9
:1012B000E4E2F1E0ADEAB0E001900D928A95E1F749
:1012C00056CF8091AC008F5F8093AC00C330E1F5C6
:1012D00020912601822F877010912701853041F4DB
:1012E0001093AB002114310409F441CF89D63FCFCC
:1012F000CDE1D0E0843089F0C82FD0E0843060F4B4
:101300008091AB00882341F08150990B880F991F81
:10131000880F991FC80FD91F219623FF0CC061E0C9
:10132000CE01B3D7882309F422CF612FCE01BFDAD3
:1013300018131DCFD7CF60E0CE01A7D7882309F4BB
:1013400016CFCE01EED7F4CFC43009F010CF809184
:101350002601682F70E0762F6627662773709091BC
:101360002701692B6F5F7F4F29E530E0409128010D
:101370008C70BEDAFCCE80E0C6D7E0912601EF3F4C
:1013800059F4809127018111F2CE20E030E0232B27
:1013900009F4EDCE35D6EBCEE7FD0CC00091290166
:1013A000209128014091270170E060E08E2F90E0AD
:1013B00005DBDDCEE03C08F034C19091A40097FF3E
:1013C000D6CE40912701242F30E0E901C095D09579
:1013D000CC0FDD1FCC0FDD1FC07CD170EF73CE2B87
:1013E00035952795522F5370D52E80912401853045
:1013F00019F54C784C3001F59AD78C179D0721F0E0
:10140000CF3FD14009F0B3CEC0912701D0E0DC2F0F
:10141000CC27CC27D37080912801C80FD11D2196ED
:101420001091290161E0CE0130D7612F882309F4A2
:101430009ECECE013CDA9BCE7E01A1E0EA1AF108F5
:10144000EE0CFF1CEE0CFF1CED2887010F5F1F4FF9
:101450008091BC008823D9F096FF3BC0C80160E0B2
:1014600071E0D1D1682F81E090E021DAC80117FF47
:1014700002C081509F4F692F89E090E018DAE0E0C8
:10148000F0E0EF2B11F0C801BBD51092BC008091A9
:10149000A40080FD34C080912401843009F045C04F
:1014A000809127018978813009F061CE80E090E059
:1014B000892B21F060912801C801A2D5A0E0B0E0FD
:1014C000AB2B09F454CE409128016D2DC80198D55D
:1014D0004ECEBE016F73772781E090E0E8D9BE0160
:1014E00046E0759567954A95E1F789E090E0DFD988
:1014F00020E030E0232B49F2CE0182D5C6CF86FF13
:1015000009C015D78017910731F20D3F37E0130757
:1015100014F62DCE0CD78C179D0709F4BCCFCF3F06
:1015200041E0D40709F4B7CF22CE833029F54091AA
:101530002701B42FB170EB2E43FBFF24F0F8E0E05D
:10154000F0E0EF2B29F047702F2DBE01C80158D5D0
:101550008091A40086FF05C04F2D6E2DC801A1DB30
:1015600006CE20E030E0232B09F401CE2F2D4E2DA6
:101570006D2DCE0145D5FBCD863009F0F8CD80919B
:101580002701982F9978913021F08F78803809F0D1
:10159000EECD8091A40086FF23C0C9D680179107A5
:1015A000D9F48091280190E0D82FCC27CC27D37094
:1015B00020912901C20FD11D219610912A019595E4
:1015C000879595958795837099278230910581F04D
:1015D000039709F427CFCBCD0D3F174014F7C7CDA4
:1015E000A6D68C179D07E9F2CF3FD140D1F2BFCDEF
:1015F00014FFBDCD61E0CE0148D6882309F4B7CDF4
:10160000CE018FD6912F977061E070E001C0660F18
:101610009A95EAF713FF02C0682B0BCF60956823F9
:1016200008CFE83E08F0A3CDE05CFF0B80912701D6
:1016300000912A01209129014091280161E070E088
:101640009E2FB6CE2093E100BEDA1092E30061E057
:1016500083E0B5D862E080E0EED82ECD80E0B3D64E
:10166000C82FD7D5683B7B4081059105F0F5809167
:10167000D000811106C0C13021F4C093D000C093C6
:10168000CF00C0936000C5D56B017C018091CF0075
:10169000882309F411CD813009F06CC08091C60017
:1016A0009091C700A091C800B091C900A701960110
:1016B000281B390B4A0B5B0BDA01C901853F9140AE
:1016C000A105B10508F4F8CC84E07DD661E0892B52
:1016D00009F060E084E073D8C092C600D092C700E1
:1016E000E092C800F092C900E7CC809160008130A0
:1016F00061F4C111C6CF8DD56093CB007093CC003F
:101700008093CD009093CE00BCCF8111BACFC13071
:1017100009F0B7CFD091CF007CD50091CB001091CC
:10172000CC002091CD003091CE00DC01CB01801B9C
:10173000910BA20BB30B85369105A105B10508F4F9
:10174000A0CFD23019F4C093CA009BCF813DE7E00F
:101750009E07A105B10548F088389341A105B10560
:1017600008F08FCF8AE04CDA8CCF8091E100819530
:1017700067DA87CF823009F09FCC8091C6009091C4
:10178000C700A091C800B091C900A7019601281B0D
:10179000390B4A0B5B0BDA01C901893E9340A10565
:1017A000B10508F091CF88CCE199FECF9FBB8EBBED
:1017B000E09A99278DB30895262FE199FECF1CBAA0
:1017C0009FBB8EBB2DBB0FB6F894E29AE19A0FBE79
:1017D00001960895EE27FF27AA27BB2708C0A20F6E
:1017E000B31FE41FF51F220F331F441F551F96958B
:1017F00087957795679598F37040A9F7009799F7C3
:10180000BD01CF01089597FB072E16F4009406D072
:1018100077FD08D02DD007FC05D03EF4909581953A
:101820009F4F0895709561957F4F0895A1E21A2EFC
:10183000AA1BBB1BFD010DC0AA1FBB1FEE1FFF1F74
:10184000A217B307E407F50720F0A21BB30BE40BC4
:10185000F50B661F771F881F991F1A9469F760950B
:101860007095809590959B01AC01BD01CF010895C5
:10187000AA1BBB1B51E107C0AA1FBB1FA617B707B6
:1018800010F0A61BB70B881F991F5A95A9F78095D2
:101890009095BC01CD010895EE0FFF1F0590F491C6
:1018A000E02D0994FB01DC0104C08D9101908019A9
:1018B00021F441505040C8F7881B990B0895FB0153
:1018C000DC0101900D920020E1F70895F894FFCF1C
:1018D00002000000006000BB00AE007C0099005FC9
:0A18E000004D696E695374657000D5
:00000001FF
